:100000000C9462000C948A000C948A000C948A0070
:100010000C948A000C948A000C948A000C948A0038
:100020000C948A000C948A000C948A000C948A0028
:100030000C948A000C948A000C948A000C948A0018
:100040000C9425060C948A000C94F3050C94CD05B1
:100050000C948A000C948A000C948A000C948A00F8
:100060000C948A000C948A000000000024002700F1
:100070002A0000000000250028002B0000000000DE
:1000800023002600290004040404040404040202DA
:100090000202020203030303030301020408102007
:1000A0004080010204081020010204081020000012
:1000B0000008000201000003040700000000000027
:1000C0000000B40611241FBECFEFD8E0DEBFCDBFC5
:1000D00022E0A2EBB1E001C01D92A638B207E1F721
:1000E00011E0A0E0B1E0E2EDF4E102C005900D9274
:1000F000A23BB107D9F710E0C2E6D0E004C02197D7
:10010000FE010E94E309C136D107C9F70E94FF062C
:100110000C94670A0C940000CF92DF92EF92FF924A
:100120000F931F93CF93DF936C017A018B01C0E093
:10013000D0E0CE15DF0589F0D8016D918D01D60193
:10014000ED91FC910190F081E02DC6010995892B7C
:1001500011F47E0102C02196ECCFC701DF91CF914F
:100160001F910F91FF90EF90DF90CF900895FC01C9
:10017000918D828D981761F0828DDF01A80FB11DDE
:100180005D968C91928D9F5F9F73928F90E0089502
:100190008FEF9FEF0895FC01918D828D981731F0BC
:1001A000828DE80FF11D858D90E008958FEF9FEF10
:1001B0000895FC01918D228D892F90E0805C9F4FE6
:1001C000821B91098F739927089581ED91E00E9418
:1001D000D90021E0892B09F420E0822F0895FC0149
:1001E000848DDF01A80FB11DA35ABF4F2C91848DC0
:1001F00090E001968F739927848FA689B7892C93F5
:10020000A089B1898C9180648C93938D848D98138F
:1002100006C00288F389E02D80818F7D8083089558
:10022000EF92FF920F931F93CF93DF93EC0181E046
:10023000888F9B8D8C8D981305C0E889F989808102
:1002400085FD24C0F62E0B8D10E00F5F1F4F0F733E
:100250001127E02E8C8DE8120CC00FB607FCFACFE8
:10026000E889F989808185FFF5CFCE010E94EF00F2
:10027000F1CF8B8DFE01E80FF11DE35AFF4FF082A5
:100280000B8FEA89FB898081806207C0EE89FF8934
:100290006083E889F98980818064808381E090E0CF
:1002A000DF91CF911F910F91FF90EF900895CF9321
:1002B000DF93EC01888D8823C9F0EA89FB8980816E
:1002C00085FD05C0A889B9898C9186FD0FC00FB640
:1002D00007FCF5CF808185FFF2CFA889B9898C9181
:1002E00085FFEDCFCE010E94EF00E7CFDF91CF91E8
:1002F000089580E090E0892B29F00E94E5008111AB
:100300000C9400000895833081F028F4813099F036
:100310008230A1F008958730A9F08830B9F0843098
:10032000D1F4809180008F7D03C0809180008F7711
:1003300080938000089584B58F7702C084B58F7D47
:1003400084BD08958091B0008F7703C08091B00084
:100350008F7D8093B0000895CF93DF93282F30E0F6
:10036000F901E255FF4F8491F901E656FF4FD49110
:10037000F901EA57FF4FC491CC2391F081110E94FB
:100380008301EC2FF0E0EE0FFF1FE458FF4FA59123
:10039000B491EC91ED2381E090E021F480E002C083
:1003A00080E090E0DF91CF9108951F93CF93DF938A
:1003B000282F30E0F901E255FF4F8491F901E6560C
:1003C000FF4FD491F901EA57FF4FC491CC23C9F0F4
:1003D000162F81110E948301EC2FF0E0EE0FFF1F1A
:1003E000EE58FF4FA591B4918FB7F894111105C045
:1003F0009C91ED2FE095E92302C0EC91ED2BEC935D
:100400008FBFDF91CF911F910895CF93DF9390E03D
:10041000FC01E656FF4F2491FC01EA57FF4F8491FF
:10042000882361F190E0880F991FFC01E859FF4F84
:10043000C591D491FC01EE58FF4FA591B491611183
:1004400009C09FB7F8948881209582238883EC9116
:100450002E230BC0623061F49FB7F8943881822F4D
:10046000809583238883EC912E2B2C939FBF06C00D
:100470008FB7F894E8812E2B28838FBFDF91CF911F
:1004800008951F93CF93DF93182FEB0161E00E9433
:100490000502209711F460E004C0CF3FD10539F484
:1004A00061E0812FDF91CF911F910C94D501E12F55
:1004B000F0E0E255FF4FE491E330F9F048F4E13029
:1004C000B9F0E230A1F584B5806284BDC8BD34C006
:1004D000E730E9F0E83019F1E43049F58091800027
:1004E000806280938000D0938B00C0938A0024C0E8
:1004F00084B5806884BDC7BD1FC0809180008068BE
:1005000080938000D0938900C093880015C08091AB
:10051000B00080688093B000C093B3000DC080919C
:10052000B00080628093B000C093B40005C0C038B2
:10053000D1050CF0B5CFAFCFDF91CF911F910895CA
:100540003FB7F8948091BB019091BC01A091BD018F
:10055000B091BE0126B5A89B05C02F3F19F00196AA
:10056000A11DB11D3FBFBA2FA92F982F8827820F39
:10057000911DA11DB11DBC01CD0142E0660F771F89
:10058000881F991F4A95D1F708958F929F92AF9235
:10059000BF92CF92DF92EF92FF926B017C010E949B
:1005A000A0024B015C01C114D104E104F104F1F09B
:1005B0000E94A002DC01CB0188199909AA09BB0994
:1005C000883E9340A105B10570F321E0C21AD1081D
:1005D000E108F10888EE880E83E0981EA11CB11C8A
:1005E000C114D104E104F10419F7DDCFFF90EF90BD
:1005F000DF90CF90BF90AF909F908F900895CF9352
:10060000DF93EC0160E08E810E94D50161E08E8174
:100610000E94D50160E08E810E94D5018BE891E0B7
:100620000197F1F7DF91CF910895CF92DF92EF928A
:10063000FF920F931F93CF93DF937C016C0187E0B0
:10064000C80ED11CC0E0D0E0062F10E0B8010C2E7F
:1006500002C0759567950A94E2F76170F601819181
:100660006F010E94D5012196C430D10579F7C701E9
:10067000DF91CF911F910F91FF90EF90DF90CF907E
:100680000C94FF02CF92DF92EF92FF920F931F9391
:10069000CF93DF93EC01F62E642F8C810E94D5015D
:1006A0008D818F3F19F060E00E94D5018F850F2D5D
:1006B00010E084FF25C06E0187E0C80ED11CE12C3C
:1006C000F12CB8010E2C02C0759567950A94E2F7DB
:1006D0006170F60181916F010E94D501FFEFEF1A61
:1006E000FF0A88E0E816F10461F7CE01DF91CF91AF
:1006F0001F910F91FF90EF90DF90CF900C94FF022D
:10070000B80184E0759567958A95E1F7CE010E945E
:1007100015036F2DCE01DF91CF911F910F91FF90A7
:10072000EF90DF90CF900C94150341E00E944203BC
:1007300081E090E0089540E00C944203643008F0BA
:1007400063E090918102691710F06FEF690FE62F57
:10075000F0E0E259FD4F9489682F690F60688EE6DA
:1007600092E00C949B0361E00E949B038BE39FE16A
:100770000197F1F70895EF92FF920F931F93CF9394
:10078000DF93EC01623018F08F8588608F876B8B68
:100790001C8A80E48D8B80E18E8B80E58F8B61E0FD
:1007A0008C810E9405028D818F3F19F061E00E94CB
:1007B000050261E08E810E9405027E0187E0E80E5D
:1007C000F11C00E010E08F8584FD03C084E090E020
:1007D00002C088E090E0081719074CF461E0F701C7
:1007E00081917F010E9405020F5F1F4FECCF8BE3C9
:1007F0009DE00197F1F760E08C810E94D50160E0F7
:100800008E810E94D5018D818F3F19F060E00E949A
:10081000D5016F8564FD1DC063E0CE010E94150304
:100820000BE416E4C8010197F1F763E0CE010E94E2
:100830001503C8010197F1F763E0CE010E9415038B
:1008400083E592E00197F1F762E0CE010E94150383
:1008500016C06062CE010E949B038BE496E4019770
:10086000F1F76F856062CE010E949B0383E592E001
:100870000197F1F76F856062CE010E949B036F853F
:100880006062CE010E949B0384E0888B6CE0CE0105
:100890000E949B03CE010E94B30382E0898B66E035
:1008A000CE01DF91CF911F910F91FF90EF900C94AB
:1008B0009B032091C5013091C601C901330FAA0BDA
:1008C000BB0B9C01AD012250310941095109ACE932
:1008D000BFEF0E94310A2CE130E040E050E00E947E
:1008E000040ADA01C9018C599F4FAF4FBF4F8536BB
:1008F000910514F084E690E09093C6018093C501C1
:100900008091C5019091C60197FF04C01092C60165
:100910001092C50108950E94E9096115710579F0E9
:10092000FB0101900020E9F73197AF01461B570BFF
:10093000DC01ED91FC910280F381E02D099480E0CF
:1009400090E008954F925F926F927F928F929F9264
:10095000AF92BF92CF92DF92EF92FF920F931F93CD
:10096000CF93DF93CDB7DEB7A1970FB6F894DEBF74
:100970000FBECDBF8C016A017B0177FF2FC0DC0168
:10098000ED91FC910190F081E02D6DE209955C0103
:1009900022273327A9012C193D094E095F0919A205
:1009A000FE01B1967F019AE0492E512C612C712CE9
:1009B000CA01B901A30192010E94360A605DD70104
:1009C0006E937D01211531054105510589F7BD0162
:1009D000C8010E948D048A0D9B1D1EC09A01AB01A7
:1009E00019A2FE01B1967F018AE0882E912CA12CDC
:1009F000B12CCA01B901A50194010E94360A605DBB
:100A0000D7016E937D01211531054105510589F707
:100A1000BD01C8010E948D04A1960FB6F894DEBFF7
:100A20000FBECDBFDF91CF911F910F91FF90EF903F
:100A3000DF90CF90BF90AF909F908F907F906F90FE
:100A40005F904F900895BC018EE692E00C948D0467
:100A50000F931F9360E083E10E94D50183E090E053
:100A60000197F1F761E083E10E94D50183E290E014
:100A70000197F1F7ECEAF0E06491E8E9F0E0E49145
:100A8000F0E0EE0FFF1FE458FF4F8591949100E4D2
:100A900012E42FE030E0462F0E946F0661157105C9
:100AA0008105910549F0DC01CB010196A11DB11D25
:100AB000BC01CD019F7003C060E070E0CB0160938A
:100AC000B2017093B3018093B4019093B5012AE30E
:100AD00030E040E050E00E94040ACA01B9011F91D1
:100AE0000F9108950F931F93CF93DF938BE090E0C6
:100AF0000E94EE09C82FD0E0D093CC01C093CB0167
:100B00008CE090E00E94EE09182F90E09093CA01CB
:100B10008093C9018DE090E00E94EE09082F90E0DB
:100B20009093C8018093C7018EE090E00E94EE0987
:100B3000282F30E0309301012093000188EE93E0EC
:100B4000289FA001299F500D389F500D112484E645
:100B5000089F400D511D11248AE0189F400D511D22
:100B600011244C0F5D1F052E000C660B770B409374
:100B7000C1015093C2016093C3017093C40181ED20
:100B800091E00E94A20466E271E081ED91E0DF91C4
:100B9000CF911F910F910C948D041F920F920FB65D
:100BA0000F9211242F933F934F935F936F937F93F3
:100BB0008F939F93AF93BF93EF93FF9381ED91E05A
:100BC0000E94EF00FF91EF91BF91AF919F918F91A4
:100BD0007F916F915F914F913F912F910F900FBE39
:100BE0000F901F9018951F920F920FB60F9211241D
:100BF0002F938F939F93EF93FF93E091E101F091F7
:100C0000E2018081E091E701F091E80182FD12C0EC
:100C100090818091EA018F5F8F732091EB018217A1
:100C200051F0E091EA01F0E0EF52FE4F958F809392
:100C3000EA0101C08081FF91EF919F918F912F91E7
:100C40000F900FBE0F901F9018951F920F920FB626
:100C50000F9211242F933F938F939F93AF93BF9342
:100C60008091B7019091B801A091B901B091BA01FA
:100C70003091B60123E0230F2D3720F40196A11DFA
:100C8000B11D05C026E8230F0296A11DB11D2093BA
:100C9000B6018093B7019093B801A093B901B093C6
:100CA000BA018091BB019091BC01A091BD01B091AE
:100CB000BE010196A11DB11D8093BB019093BC01A3
:100CC000A093BD01B093BE01BF91AF919F918F9151
:100CD0003F912F910F900FBE0F901F901895CF92BC
:100CE000DF92EF92FF920F931F93E82FF92F05C029
:100CF000015011092109310961F19081962394175E
:100D0000B9F305C0015011092109310911F1908190
:100D100096239413F7CFC12CD12CE12CF12C0AC0CF
:100D20008FEFC81AD80AE80AF80A0C151D052E0517
:100D30003F0579F080818623841791F36C2D7D2DFA
:100D40008E2D9F2D1F910F91FF90EF90DF90CF90F0
:100D5000089560E070E080E090E01F910F91FF90B7
:100D6000EF90DF90CF900895E1EDF1E013821282D1
:100D700088EE93E0A0E0B0E084839583A683B783F8
:100D800082E191E09183808385EC90E09587848770
:100D900084EC90E09787868780EC90E0918B808B45
:100DA00081EC90E0938B828B82EC90E0958B848B2E
:100DB00086EC90E0978B868B118E128E138E148E9C
:100DC000EEE6F2E01382128282E291E09183808368
:100DD00082E084838FEF858383E0868384E087834A
:100DE00085E0808786E0818787E082871386148686
:100DF00015861686178661E0CF010C94BB037894A4
:100E000084B5826084BD84B5816084BD85B582600F
:100E100085BD85B5816085BD80916E0081608093C0
:100E20006E00109281008091810082608093810029
:100E30008091810081608093810080918000816039
:100E4000809380008091B10084608093B100809194
:100E5000B00081608093B00080917A0084608093BC
:100E60007A0080917A00826080937A0080917A0083
:100E7000816080937A0080917A00806880937A0004
:100E80001092C100C6E0D1E01881229660E0812F67
:100E90000E94050261E0812F0E94D50181E0C031EE
:100EA000D80791F760E08BE00E94050260E08AE0DD
:100EB0000E94050260E08CE00E94050261E083E18F
:100EC0000E94050260E082E10E94050261E089E083
:100ED0000E94050261E088E00E94050261E08DE069
:100EE0000E94050264E08EE692E00E94BB0360E08F
:100EF00080E00E949E0389E291E00E94230561E068
:100F000080E00E949E038AE391E00E94230562E054
:100F100080E00E949E038BE491E00E94230563E041
:100F200080E00E949E0385E591E00E94230568EE23
:100F300073E080E090E00E94C502E091E101F09151
:100F4000E20182E08083E091DD01F091DE01108218
:100F5000E091DF01F091E0018FEC80831092E901D4
:100F6000E091E501F091E60186E08083E091E30104
:100F7000F091E401808180618083E091E301F09150
:100F8000E401808188608083E091E301F091E401D5
:100F9000808180688083E091E301F091E4018081A9
:100FA0008F7D80830E947205C5E0D0E00E942805F5
:100FB0007093C6016093C5010E94590464E670E015
:100FC00080E090E00E94C502219781F78EE692E0D2
:100FD0000E94B30301E010E08091CF019091D00115
:100FE000892B09F0B3C08EE00E94AC01892B09F077
:100FF00043C08EE692E00E94B3038091CD019091B0
:10100000CE010196853091052CF49093CE0180930A
:10101000CD012CC01092CE011092CD016091CB0178
:101020008BE090E00E94F6096091C9018CE090E0AD
:101030000E94F6096091C7018DE090E00E94F609D8
:10104000609100018EE090E00E94F6090E94720516
:1010500060E080E00E949E0386E691E00E94230506
:1010600068EE73E080E090E00E94C5026CE271E0FF
:1010700080E090E00E94C5028FE00E94AC01892BC5
:1010800009F064C08091CD019091CE01813091052D
:1010900051F48091CB019091CC0101969093CC01B9
:1010A0008093CB0125C08230910551F48091C90114
:1010B0009091CA0101969093CA018093C90118C00A
:1010C0008330910551F48091C7019091C801019638
:1010D0009093C8018093C7010BC0049749F4809195
:1010E000000190910101019690930101809300010C
:1010F0008091CB019091CC010A9724F01092CC0101
:101100001092CB018091C9019091CA010A9724F0F5
:101110001092CA011092C9018091C7019091C80133
:101120000A9724F01092C8011092C7018091000123
:10113000909101010A9724F0109201011092000190
:101140006CE271E080E090E00E94C5028091CD01E8
:101150009091CE01892B09F051C080E10E94AC0131
:10116000892B21F41092D0011092CF0181E10E94CD
:10117000AC01892B21F41093D0010093CF0160E0E2
:1011800080E00E949E0389E291E00E94230561E0D5
:1011900080E00E949E0387E791E00E94230562E0C1
:1011A00080E00E949E0388E891E00E942305409120
:1011B000C5015091C601052E000C660B770B8EE61B
:1011C00092E00E94A20484E991E00E94230563E07A
:1011D00080E00E949E0389E991E00E9423054091EE
:1011E000C1015091C2016091C3017091C4018EE6AA
:1011F00092E00E94A20484E891E06EC060E080E08A
:101200000E949E0385EA91E00E942305409100011F
:1012100050910101052E000C660B770B8EE692E0D3
:101220000E94A2044091C7015091C801052E000CF4
:10123000660B770B8EE692E00E94A2044091C901F2
:101240005091CA01052E000C660B770B8EE692E0DA
:101250000E94A2044091CB015091CC01052E000CBC
:10126000660B770B8EE692E00E94A2048091CD017E
:101270009091CE01049741F461E08AE00E949E03C0
:1012800080EB91E00E9423058091CD019091CE01E9
:10129000039741F461E08BE00E949E0380EB91E0B4
:1012A0000E9423058091CD019091CE01029741F4D7
:1012B00061E08CE00E949E0380EB91E00E94230598
:1012C0008091CD019091CE01019741F461E08DE0D4
:1012D0000E949E0380EB91E00E9423058091CF0144
:1012E0009091D001019709F066C08CE00E94AC019A
:1012F000EC01019709F053C068EC70E089E00E94AE
:1013000041028BE00E94AC01892B09F03EC0809124
:10131000BF019091C001892BC1F5D093C001C0934A
:10132000BF0160E070E089E00E94410268EC70E07B
:1013300080E090E00E94C50261E088E00E94D50153
:101340006091C1017091C2018091C3019091C4016B
:101350000E94C50260E088E00E94D501CAE0D0E0AA
:101360000E9428057093C6016093C5010E9459042C
:1013700068EC70E080E090E00E94C502219781F760
:1013800068EC70E089E00E9441028AE00E94AC01B2
:10139000892BB1F41092C0011092BF0111C060E01E
:1013A00070E089E00E9441026CE271E080E090E030
:1013B0000E94C50205C060E070E089E00E94410221
:1013C0000E94790109CEEE0FFF1F0590F491E02DE8
:1013D000099481E090E0F8940C94670AF999FECFA3
:1013E00092BD81BDF89A992780B50895262FF99965
:1013F000FECF1FBA92BD81BD20BD0FB6F894FA9AF8
:10140000F99A0FBE01960895052E97FB1EF40094DD
:101410000E941B0A57FD07D00E94360A07FC03D022
:101420004EF40C941B0A50954095309521953F4FF2
:101430004F4F5F4F089590958095709561957F4FC0
:101440008F4F9F4F08950E94580AA59F900DB49FFB
:10145000900DA49F800D911D11240895B7FF0C9449
:10146000230A0E94230A821B930B0895A1E21A2EDD
:10147000AA1BBB1BFD010DC0AA1FBB1FEE1FFF1F38
:10148000A217B307E407F50720F0A21BB30BE40B88
:10149000F50B661F771F881F991F1A9469F76095CF
:1014A0007095809590959B01AC01BD01CF01089589
:1014B000A29FB001B39FC001A39F700D811D112495
:1014C000911DB29F700D811D1124911D0895F894F6
:0214D000FFCF4C
:1014D2000100010000000E000F00100011000000CA
:1014E200000010018C00D900B700CB0057010000AA
:1014F200000095038C000D0A0020202057454C4324
:101502004F4D452020546F2020004175746F6D614E
:101512007469632020576174657200202046696CEB
:101522006C696E670020202020202020202020537C
:10153200797374656D0020204F6B2053617665646A
:101542002044617461200020202020204120572067
:10155200462053202020200054616E6B204C65767B
:10156200656C3D00252020200046696C6C20546982
:101572006D65203D005365742054696D653D200002
:021582002D003A
:00000001FF
